{
  "_format": "hh-sol-artifact-1",
  "contractName": "Consent",
  "sourceName": "contracts/Consent.sol",
  "abi": [
    {
      "inputs": [
        {
          "internalType": "uint256",
          "name": "consentID",
          "type": "uint256"
        },
        {
          "internalType": "address",
          "name": "holder",
          "type": "address"
        },
        {
          "internalType": "address",
          "name": "issuer",
          "type": "address"
        },
        {
          "internalType": "address",
          "name": "verifier",
          "type": "address"
        }
      ],
      "name": "giveConsent",
      "outputs": [],
      "stateMutability": "nonpayable",
      "type": "function"
    },
    {
      "inputs": [
        {
          "internalType": "uint256",
          "name": "consentID",
          "type": "uint256"
        },
        {
          "internalType": "address",
          "name": "holder",
          "type": "address"
        }
      ],
      "name": "revokeConsent",
      "outputs": [],
      "stateMutability": "nonpayable",
      "type": "function"
    },
    {
      "inputs": [
        {
          "internalType": "uint256",
          "name": "consentID",
          "type": "uint256"
        },
        {
          "internalType": "address",
          "name": "holder",
          "type": "address"
        },
        {
          "internalType": "address",
          "name": "verifier",
          "type": "address"
        }
      ],
      "name": "verifyConsent",
      "outputs": [
        {
          "internalType": "bool",
          "name": "",
          "type": "bool"
        }
      ],
      "stateMutability": "view",
      "type": "function"
    }
  ],
  "bytecode": "0x608060405234801561001057600080fd5b50610902806100206000396000f3fe608060405234801561001057600080fd5b50600436106100415760003560e01c80632ef711af14610046578063303103bc14610062578063b6536fe71461007e575b600080fd5b610060600480360381019061005b9190610618565b6100ae565b005b61007c60048036038101906100779190610658565b61021c565b005b610098600480360381019061009391906106bf565b61043b565b6040516100a5919061072d565b60405180910390f35b600160028111156100c2576100c1610748565b5b60008084815260200190815260200160002060020160149054906101000a900460ff1660028111156100f7576100f6610748565b5b14610137576040517f08c379a000000000000000000000000000000000000000000000000000000000815260040161012e906107d4565b60405180910390fd5b8073ffffffffffffffffffffffffffffffffffffffff1660008084815260200190815260200160002060000160009054906101000a900473ffffffffffffffffffffffffffffffffffffffff1673ffffffffffffffffffffffffffffffffffffffff16146101da576040517f08c379a00000000000000000000000000000000000000000000000000000000081526004016101d190610840565b60405180910390fd5b600260008084815260200190815260200160002060020160146101000a81548160ff0219169083600281111561021357610212610748565b5b02179055505050565b600060028111156102305761022f610748565b5b60008086815260200190815260200160002060020160149054906101000a900460ff16600281111561026557610264610748565b5b146102a5576040517f08c379a000000000000000000000000000000000000000000000000000000000815260040161029c906108ac565b60405180910390fd5b60405180608001604052808473ffffffffffffffffffffffffffffffffffffffff1681526020018373ffffffffffffffffffffffffffffffffffffffff1681526020018273ffffffffffffffffffffffffffffffffffffffff1681526020016001600281111561031857610317610748565b5b81525060008086815260200190815260200160002060008201518160000160006101000a81548173ffffffffffffffffffffffffffffffffffffffff021916908373ffffffffffffffffffffffffffffffffffffffff16021790555060208201518160010160006101000a81548173ffffffffffffffffffffffffffffffffffffffff021916908373ffffffffffffffffffffffffffffffffffffffff16021790555060408201518160020160006101000a81548173ffffffffffffffffffffffffffffffffffffffff021916908373ffffffffffffffffffffffffffffffffffffffff16021790555060608201518160020160146101000a81548160ff0219169083600281111561042d5761042c610748565b5b021790555090505050505050565b60006001600281111561045157610450610748565b5b60008086815260200190815260200160002060020160149054906101000a900460ff16600281111561048657610485610748565b5b146104945760009050610578565b8273ffffffffffffffffffffffffffffffffffffffff1660008086815260200190815260200160002060000160009054906101000a900473ffffffffffffffffffffffffffffffffffffffff1673ffffffffffffffffffffffffffffffffffffffff1614158061056557508173ffffffffffffffffffffffffffffffffffffffff1660008086815260200190815260200160002060020160009054906101000a900473ffffffffffffffffffffffffffffffffffffffff1673ffffffffffffffffffffffffffffffffffffffff1614155b156105735760009050610578565b600190505b9392505050565b600080fd5b6000819050919050565b61059781610584565b81146105a257600080fd5b50565b6000813590506105b48161058e565b92915050565b600073ffffffffffffffffffffffffffffffffffffffff82169050919050565b60006105e5826105ba565b9050919050565b6105f5816105da565b811461060057600080fd5b50565b600081359050610612816105ec565b92915050565b6000806040838503121561062f5761062e61057f565b5b600061063d858286016105a5565b925050602061064e85828601610603565b9150509250929050565b600080600080608085870312156106725761067161057f565b5b6000610680878288016105a5565b945050602061069187828801610603565b93505060406106a287828801610603565b92505060606106b387828801610603565b91505092959194509250565b6000806000606084860312156106d8576106d761057f565b5b60006106e6868287016105a5565b93505060206106f786828701610603565b925050604061070886828701610603565b9150509250925092565b60008115159050919050565b61072781610712565b82525050565b6000602082019050610742600083018461071e565b92915050565b7f4e487b7100000000000000000000000000000000000000000000000000000000600052602160045260246000fd5b600082825260208201905092915050565b7f436f6e73656e74206e6f74206772616e74656400000000000000000000000000600082015250565b60006107be601383610777565b91506107c982610788565b602082019050919050565b600060208201905081810360008301526107ed816107b1565b9050919050565b7f4f6e6c7920686f6c6465722063616e207265766f6b6520636f6e73656e740000600082015250565b600061082a601e83610777565b9150610835826107f4565b602082019050919050565b600060208201905081810360008301526108598161081d565b9050919050565b7f436f6e73656e7420616c7265616479206772616e746564000000000000000000600082015250565b6000610896601783610777565b91506108a182610860565b602082019050919050565b600060208201905081810360008301526108c581610889565b905091905056fea26469706673582212202a84e5db6ff5dc4760724f0eb344e01d42afd3f14bd46519c4356d7ca9a5f58864736f6c63430008120033",
  "linkReferences": {},
  "deployedLinkReferences": {}
}